:020000040800F2
:1000000000000120C5020008CB020008CF02000852
:1000100041030008450300088D03000800000000AC
:10002000000000000000000000000000D5030008F0
:10003000D903000800000000DD0300086D2200085D
:10004000F1030008F1030008F1030008F1030008C0
:10005000F1030008F1030008491C0008651C0008B2
:10006000F1030008F1030008F1030008F1030008A0
:10007000F1030008F1030008F1030008F103000890
:10008000F1030008F1030008F1030008000000007C
:10009000000000000000000000000000F103000864
:1000A000F1030008F1030008F1030008F103000860
:1000B000F1030008F5240008F1030008F10300082B
:1000C000F1030008F1030008F1030008F103000840
:1000D000F1030008F1030008F1030008000000002C
:1000E000F1030008F1030008F1030008000000001C
:1000F000000000000000000000000000F103000804
:1001000000000000F1030008F1030008F1030008FB
:1001100000000000000000000000000000000000DF
:10012000F1030008F1030008F1030008F1030008DF
:10013000F1030008000000000000000000000000C3
:10014000000000000000000000000000F1030008B3
:10015000F1030008F1030008F1030008F1030008AF
:10016000F1030008F1030008000000000000000097
:10017000000000000000000000000000000000007F
:1001800000000000F1030008000000000000000073
:10019000F103000800B583B000F040FE384B394A47
:1001A0001360394A1360394900E02146384B9942BF
:1001B0000BD20A684B6801F10C0488689842F4D9A4
:1001C0001168196004330432F8E72E4B1A68314B7A
:1001D0009A4200D0FEE72C4B1A682F4B9A42F9D175
:1001E000274B2E4A13602E4A13602E4B05E0002049
:1001F000106004329342FAD80B462B4A934204D241
:10020000194651F8082B5B68F4E7244B1B6813B9B7
:10021000234B1B6803B1FEE702F024FA694601A8EC
:1002200000F08EFD214C224BE41AA4100025AC42B4
:1002300014DC204C204BE41AA4100025AC4213DC43
:100240000099019802F046FA05461C4C1C4BE41A32
:10025000A410002C0EDC284600F044FD144B53F88B
:10026000253098470135E2E7134B53F8253098477E
:100270000135E3E7013C124B53F824309847E8E797
:10028000BABADECA0000002078000020F40300089B
:100290000C04000878563412325476987C00002002
:1002A000440200200C0400081C0400081C04000880
:1002B0001C0400081C0400081C0400081C0400089E
:1002C0001C04000808B5FFF765FF00BEFEE71EF03E
:1002D000040F0CBFEFF30880EFF309807146414A29
:1002E00010472DE9F04182B004468846124B5E6B00
:1002F0009F6B9D6A1B6B13F0020F03D00E4BDB6AE2
:10030000002B0CDB0D4800F02DFDCDF800803B46A6
:1003100032462946204600F08DFD00BEFEE74BF632
:10032000AB6100F001FE0028ECD0034B4FF000421F
:10033000DA6202B0BDE8F08100ED00E0F8330008B9
:1003400000BEFEE71EF0040F0CBFEFF30880EFF3D2
:1003500009807146244A10472DE9F04182B00446D5
:100360008846084B5E6B9F6B9D6A074800F0FAFC5D
:10037000CDF800803B4632462946204600F05AFD23
:1003800000BEFEE700ED00E0083400081EF0040F98
:100390000CBFEFF30880EFF309807146134A104752
:1003A0002DE9F04182B004468846084B5E6B9F6B96
:1003B0009D6A074800F0D6FCCDF800803B463246E7
:1003C0002946204600F036FD00BEFEE700ED00E0C5
:1003D0001434000800BEFEE700BEFEE700BEFEE7E4
:1003E00070470000E302000859030008A103000859
:0403F00000BEFEE766
:1003F4003CFB0208000000207C0000203CFB0208BB
:1004040000000010000000107C00002048020020C2
:080414000000001000000010C0
:1004200010B50446074B1868074BA3FB0030800942
:1004300000F090F8002221464FF0FF3000F044F821
:10044000002010BD0C000020D34D621008B50B4BEE
:100450001A6842F400721A601A6842F480621A60E4
:100460001A6842F480721A60032000F00FF80F201F
:10047000FFF7D6FF02F058FA002008BD003C02400A
:10048000014B1868704700BF3C02002010B50446BD
:10049000C31E042B0FD80A4AD36823F4E0631B045D
:1004A0001B0C240204F4E064234343F0BF6343F4D1
:1004B0000033D36010BDA421024800F049FCEAE7F4
:1004C00000ED00E02832000870B505460C461646DF
:1004D0000F2A25D80F2C28D81B4BDB68C3F3022327
:1004E000C3F10702042A28BF0422191D062921D9B5
:1004F000033B4FF0FF3101FA02F224EA02049C4070
:1005000001FA03F326EA03063443002D14DB240129
:10051000E4B205F1604505F5614585F8004370BD1D
:10052000BC210A4800F014FCD4E7BD21074800F0C4
:100530000FFCD1E70023DCE705F00F052401E4B24E
:10054000034B5C55EBE700BF00ED00E028320008EC
:1005500014ED00E00138B0F1807F0AD2064B5860FC
:10056000064AF02182F823100020986007221A60C2
:1005700070470120704700BF10E000E000ED00E090
:1005800010B50446042800D038B9042C0BD0094A11
:10059000136823F00403136010BD40F2B311064842
:1005A00000F0D6FBF1E7034A136843F0040313603D
:1005B000F2E700BF10E000E02832000830B583B059
:1005C000044603680F2B29D8236813F0010F3DD090
:1005D0006368012B01D9052B25D1A34B9B6803F040
:1005E0000C03042B29D0A04B9B6803F00C03082BB1
:1005F0001ED022799D4B1A706368002B50D0FFF7F4
:100600003FFF0546984B1B6813F4003F1ED1FFF7D0
:1006100037FF401B6428F5D90320E3E1F521944816
:1006200000F096FBD0E7FA21914800F091FBD4E767
:100630008D4B5B6813F4800FDBD08B4B1B6813F47E
:10064000003F03D06368002B00F0C981236813F0DA
:10065000020F5DD0E368012B31D823691F2B34D8FA
:10066000814B9B6813F00C0F3AD07F4B9B6803F0D3
:100670000C03082B2FD0E368002B74D07D4B012294
:100680001A60FFF7FDFE0546774B1B6813F0020F5B
:100690005AD1FFF7F5FE401B0228F5D90320A1E14E
:1006A000FFF7EEFE0546704B1B6813F4003FCDD0FC
:1006B000FFF7E6FE401B6428F5D9032092E14FF4D2
:1006C00096716B4800F044FBC7E740F22D11684873
:1006D00000F03EFBC4E7644B5B6813F4800FCAD1A3
:1006E000614B1B6813F0020F04D0E368012B01D0AB
:1006F000012077E15C48036823F0F8032169F822C0
:1007000092FAA2F2B2FA82F201FA02F21343036001
:10071000236813F0080F50D06369012B35D8636943
:10072000002B38D0544B01221A60FFF7A9FE054672
:100730004D4B5B6F13F0020F3FD1FFF7A1FE401B43
:100740000228F5D903204DE14748036823F0F80358
:100750002169F82292FAA2F2B2FA82F201FA02F2C6
:1007600013430360D4E7434B00221A60FFF788FE6F
:1007700005463D4B1B6813F0020FC9D0FFF780FE02
:10078000401B0228F5D903202CE140F26D113848B6
:1007900000F0DEFAC3E7384B00221A60FFF770FE64
:1007A0000546314B5B6F13F0020F06D0FFF768FE72
:1007B000401B0228F5D9032014E1236813F0040F2D
:1007C00060D0A368012B01D9052B1FD10023019311
:1007D000254B1A6C42F080521A641B6C03F0805354
:1007E0000193019B254A136843F480731360FFF75C
:1007F00047FE0546214B1B6813F4807F0CD1FFF7A1
:100800003FFE401B0228F5D90320EBE040F2971190
:10081000174800F09DFAD9E7227A194B1A70A3689D
:1008200083B1FFF72DFE05460F4B1B6F13F0020F30
:1008300028D1FFF725FE401B41F288339842F3D9B7
:100840000320CFE0FFF71CFE0546074B1B6F13F09C
:10085000020F17D0FFF714FE401B41F28833984275
:10086000F3D90320BEE000BF003802400238024046
:100870006C32000800004742800E47420070004082
:1008800070380240A369022B39D8A369002B00F00D
:10089000A880564A926802F00C02082A00F0A48050
:1008A000022B40F08880E36913B1B3F5800F2CD19F
:1008B000236A3F2B2FD8636A323BB3F5BF7F30D812
:1008C000A36A022B05D0042B03D0062B01D0082BE2
:1008D0002DD1E36A043B0B2B2FD8454B00221A6025
:1008E000FFF7CEFD0546414B1B6813F0007F2AD071
:1008F000FFF7C6FD401B0228F5D9032072E04FF434
:10090000E6713C4800F024FABFE740F2D5113948BF
:1009100000F01EFACCE74FF4EB71364800F018FAFD
:10092000C9E740F2D711334800F012FAC8E74FF494
:10093000EC71304800F00CFACBE740F2D9112D48A9
:1009400000F006FAC9E7E369226A1343616A47F6D1
:10095000C07292FAA2F2B2FA82F201FA02F21343E0
:10096000A26A5208013A4FF4403191FAA1F1B1FA6A
:1009700081F18A401343E16A4FF0706292FAA2F269
:10098000B2FA82F201FA02F21343184A5360184B8A
:1009900001221A60FFF774FD0446144B1B6813F024
:1009A000007F06D1FFF76CFD001B0228F5D903205C
:1009B00018E0002016E00E4B00221A60FFF760FDE1
:1009C00004460A4B1B6813F0007F06D0FFF758FD62
:1009D000001B0228F5D9032004E0002002E00120DA
:1009E00000E0002003B030BD0120FBE700380240EA
:1009F000600047426C3200081F4B9B6803F00C03F9
:100A0000082B36D11C4B586800F03F005B6813F48C
:100A1000800F1ED0194AB2FBF0F2174B586847F608
:100A2000C073184093FAA3F3B3FA83F3D84000FBE2
:100A300002F0114B5B6803F440334FF4403292FAFA
:100A4000A2F2B2FA82F2D34001335B00B0FBF3F0C2
:100A500070470A4AB2FBF0F2074B586847F6C0737A
:100A6000184093FAA3F3B3FA83F3D84000FB02F0E3
:100A7000DFE70248704700BF003802400024F4005E
:100A800070B504460D460368013B0E2B11D8072DA7
:100A900015D88C4B1B6803F00F03AB4215D2EBB299
:100AA000884A1370136803F00F03AB420DD0012086
:100AB00070BD40F23721844800F04AF9E7E74FF46F
:100AC0000E71814800F044F9E3E7236813F0020F48
:100AD00018D0A3687BB1802B0DD0902B0BD0A02B0E
:100AE00009D0B02B07D0C02B05D0D02B03D0E02BE2
:100AF00001D0F02B37D1754A936823F0F003A16839
:100B00000B439360236813F0010F73D06368032BCA
:100B10002FD86368012B32D09A1E012A36D96B4A2E
:100B2000126812F0020F00F0CA8068498A6822F049
:100B3000030213438B60FFF7A3FC06466368012B97
:100B40002BD0022B38D0032B45D0604B9B6813F081
:100B50000C0F4FD0FFF794FC801B41F28833984272
:100B6000F3D90320A4E740F24F21574800F0F0F8F2
:100B7000C1E740F25621544800F0EAF8C9E7534A69
:100B8000126812F4003FD0D1012091E74F4A126859
:100B900012F0007FC9D101208AE74C4B9B6803F01B
:100BA0000C03042B26D0FFF76BFC801B41F288332B
:100BB0009842F2D903207BE7444B9B6803F00C0377
:100BC000082B17D0FFF75CFC801B41F2883398425A
:100BD000F2D903206CE73D4B9B6803F00C030C2B10
:100BE00008D0FFF74DFC801B41F288339842F2D9C0
:100BF00003205DE7334B1B6803F00F03AB4209D9B9
:100C0000EAB2304B1A701B6803F00F03AB4201D0FD
:100C100001204DE7236813F0040F14D0E3685BB1A3
:100C2000B3F5805F08D0B3F5A05F05D0B3F5C05F22
:100C300002D0B3F5E05F36D1244A936823F4E05341
:100C4000E1680B439360236813F0080F15D0236904
:100C50005BB1B3F5805F08D0B3F5A05F05D0B3F505
:100C6000C05F02D0B3F5E05F23D1184A936823F444
:100C70006043216943EAC1039360FFF7BDFE134B54
:100C80009B6803F0F003F02292FAA2F2B2FA82F229
:100C9000D3400F4AD35CD8400E4B18600F20FFF7AB
:100CA000BFFB002004E74FF42D71074800F050F817
:100CB000C2E740F2BB21044800F04AF8D5E7012022
:100CC000F6E600BF003C02406C32000800380240EB
:100CD0005C3200080C000020014B1868704700BF10
:100CE0000C000020FEE7000008B5034800F052F8B1
:100CF0000120FFF7F7FF00BF9C32000808B503464C
:100D00000C4A12685AB10B4A1068033323F00303EC
:100D10000344094A934206D8064A136008BD054AAF
:100D200006491160EFE701F001FE0C2303604FF06C
:100D3000FF30F3E78000002000FC00204802002084
:100D400001230360014B0B60704700BF04000020CB
:100D500008B50A460146024800F004F8FFF7C4FF50
:100D6000B03200080FB400B583B004AB53F8042BC5
:100D700001938021064801F013FE002803DD01469F
:100D8000034800F047F803B05DF804EB04B0704787
:100D90008800002010B5044601F0CEFD0146204633
:100DA00000F038F80121024800F034F810BD00BF0F
:100DB000743300082DE9F04385B004460F464356CE
:100DC0000BB10E461EE0042528462146ABBE044664
:100DD000384605B0BDE8F08314F9011B04AA1A4493
:100DE00002F8101C0133AB42F6D304AA13440022CC
:100DF00003F8102C4FF00408E94640464946ABBEC4
:100E00008046761B002EE3D03546102E28BF1025D5
:100E10000023E8E708B5FFF7CDFF08BD08B500F0EF
:100E200093F8024A024B9A6008BD00BF0000000818
:100E300000ED00E0F8B504460D4617461E4627486B
:100E4000FFF790FF21682648FFF78CFF616825486F
:100E5000FFF788FFA1682448FFF784FFE168234873
:100E6000FFF780FF21692248FFF77CFF6169214875
:100E7000FFF778FFA1692048FFF774FFE1691F4879
:100E8000FFF770FF1E48FFF76DFF29461D48FFF76B
:100E900069FF1D4CE16A1D48FFF764FF216B1C4888
:100EA000FFF760FFE16B1B48FFF75CFF15F0800F59
:100EB0000AD115F4004F0CD11748FFF753FF0699DC
:100EC0001648FFF74FFFF8BD39461548FFF74AFFB0
:100ED000EFE731461348FFF745FFEDE7DC32000846
:100EE000EC320008FC3200080C3300081C33000808
:100EF0002C3300083C3300084C3300085C330008F6
:100F00006C3300087833000800ED00E088330008F7
:100F100098330008A8330008D8330008E0330008ED
:100F2000B8330008C833000883691A888A4201D0A0
:100F3000002070470268033A012A03D80233836114
:100F400001207047002070470C4B1A6842F00102E4
:100F50001A60002199601A6822F0847222F48032AB
:100F60001A60074A5A601A6822F480221A60D9600F
:100F7000044B4FF000629A60704700BF0038024097
:100F80001030002400ED00E0224B9B6803F00C03BE
:100F9000042B14D0082B16D01BB11F4B1F4A1A600C
:100FA00002E01D4B1D4A1A601A4B9B68C3F30313E2
:100FB0001B4AD15C184A1368CB4013607047164B2C
:100FC000164A1A60F0E7134B5A685B6803F03F0358
:100FD00012F4800F13D0114AB2FBF3F20D4B5B6891
:100FE000C3F3881303FB02F30A4A5268C2F30142B7
:100FF00001325200B3FBF2F3074A1360D4E7074A09
:10100000B2FBF3F2034B5B68C3F3881303FB02F3F9
:10101000EAE700BF003802400C0000200024F40082
:101020002434000808B501220721104600F028FEEC
:1010300001220821104600F023FE0122092110465A
:1010400000F01EFE01220A21104600F019FE0122C6
:101050000C21104600F014FE01220D21104600F074
:101060000FFE01220E21104600F00AFE01220F2180
:10107000104600F005FE012300220721184600F06B
:1010800041FE012300220821184600F03BFE012307
:1010900000220921184600F035FE012300220A2112
:1010A000184600F02FFE012300220C21184600F004
:1010B00029FE012300220D21184600F023FE012302
:1010C00000220E21184600F01DFE012300220F21F0
:1010D000184600F017FE08BD2DE9F84381460E467C
:1010E00090461F4600252C4695E0A308B54AA2FB72
:1010F00003239B08B42202FB1343002B55D12F2D51
:1011000053D8DFE815F0300030003000D200D200B4
:10111000D200F500F500F5001801180118013B0197
:101120003B013B0161016101610184018401840192
:10113000A701A701A701CA01CA01CA01ED01ED017A
:10114000ED01100210021002330233023302560284
:10115000560256027902790279029C029C029C0294
:10116000BF02BF02BF024FF61C6001F01AF84FF633
:10117000145001F016F84FF61C3001F012F84FF23F
:10118000107001F00EF84EF61C7001F00AF84DF6E2
:10119000147001F006F84BF6147001F002F84FF4E9
:1011A000FE4000F0FEFF0135EDB298F80030012B53
:1011B00040F0E38419F80420D2090721012000F04F
:1011C00043FE00220821012000F03EFE00220921FA
:1011D000012000F039FE00220A21012000F034FE37
:1011E00000220C21012000F02FFE00220D21012001
:1011F00000F02AFE00220E21012000F025FE002230
:101200000F21012000F020FEC82001F0EBF80020A3
:1012100000F0FEFF0134B44280F0AF843B78012B34
:101220003FF463AF022BC0D1A308664AA2FB03239D
:101230009B08B42202FB1343002BB6D1322DB4D845
:10124000DFE815F0420242024202650265026502D1
:10125000880288028802AB02AB02AB02CE02CE0249
:10126000CE02F102F102F102140314031403370356
:10127000370337035A035A035A037D037D037D0363
:10128000A003A003A003C403C403C403E803E8034A
:10129000E8030C040C040C0430043004300454043F
:1012A000540454047804780478044FF6106000F075
:1012B00078FF4FF61C5000F074FF4FF6143000F02A
:1012C00070FF4FF21C7000F06CFF4EF6107000F0D3
:1012D00068FF4DF61C7000F064FF4BF6147000F0D0
:1012E00060FF4FF4FE4000F05CFF0135EDB25CE7BB
:1012F0004FF6106000F055FF4FF6105000F051FF10
:101300004FF61C3000F04DFF4FF2147000F049FF13
:101310004EF61C7000F045FF4DF6107000F041FFD6
:101320004BF61C7000F03DFF4FF4FE4000F039FF1B
:101330000135EDB239E74FF6706000F032FF4FF63D
:10134000105000F02EFF4FF6103000F02AFF4FF241
:101350001C7000F026FF4EF6147000F022FF4DF6D0
:101360001C7000F01EFF4BF6107000F01AFF4FF4D7
:10137000FE4000F016FF0135EDB216E74FF6406073
:1013800000F00FFF4FF6705000F00BFF4FF61030DB
:1013900000F007FF4FF2107000F003FF4EF61C70D4
:1013A00000F0FFFE4DF6147000F0FBFE4BF61C70D3
:1013B00000F0F7FE4FF4FE4000F0F3FE0135EDB211
:1013C000F3E600BF176CC1164FF47E4000F0E9FE53
:1013D0004FF6405000F0E5FE4FF6703000F0E1FEB1
:1013E0004FF2107000F0DDFE4EF6107000F0D9FEE6
:1013F0004DF61C7000F0D5FE4BF6147000F0D1FED7
:101400004FF4FE4000F0CDFE0135EDB2CDE64FF6D3
:10141000F06000F0C6FE4FF47D4000F0C2FE4FF6D3
:10142000403000F0BEFE4FF2707000F0BAFE4EF693
:10143000107000F0B6FE4DF6107000F0B2FE4BF6E4
:101440001C7000F0AEFE4FF4FE4000F0AAFE013525
:10145000EDB2AAE64FF6B06000F0A3FE4FF6F050F2
:1014600000F09FFE4FF47B4000F09BFE4FF2407077
:1014700000F097FE4EF6707000F093FE4DF610707F
:1014800000F08FFE4BF6107000F08BFE4FF4FE4024
:1014900000F087FE0135EDB287E64FF47E4000F0A4
:1014A00080FE4FF6B05000F07CFE4FF6F03000F0BA
:1014B00078FE4FF4774000F074FE4EF6407000F076
:1014C00070FE4DF6707000F06CFE4BF6107000F080
:1014D00068FE4FF4FE4000F064FE0135EDB264E6B4
:1014E0004FF47E4000F05DFE4FF47D4000F059FE69
:1014F0004FF6B03000F055FE4FF2F07000F051FEA4
:101500004FF46F4000F04DFE4DF6407000F049FE84
:101510004BF6707000F045FE4FF4FE4000F041FEC7
:101520000135EDB241E64FF6146000F03AFE4FF49B
:101530007D4000F036FE4FF47B4000F032FE4FF26B
:10154000B07000F02EFE4EF6F07000F02AFE4FF460
:101550005F4000F026FE4BF6407000F022FE4FF494
:10156000FE4000F01EFE0135EDB21EE64FF61C6097
:1015700000F017FE4FF6145000F013FE4FF47B40BE
:1015800000F00FFE4FF4774000F00BFE4EF6B07007
:1015900000F007FE4DF6F07000F003FE4FF43F4000
:1015A00000F0FFFD4FF4FE4000F0FBFD0135EDB211
:1015B000FBE54FF6106000F0F4FD4FF61C5000F014
:1015C000F0FD4FF6143000F0ECFD4FF4774000F0E2
:1015D000E8FD4FF46F4000F0E4FD4DF6B07000F010
:1015E000E0FD4BF6F07000F0DCFD4FF4FE4000F043
:1015F000D8FD0135EDB2D8E54FF61C6000F0D1FD05
:101600004FF6105000F0CDFD4FF61C3000F0C9FD34
:101610004FF2147000F0C5FD4FF46F4000F0C1FDB3
:101620004FF45F4000F0BDFD4BF6B07000F0B9FD27
:101630004FF4FE4000F0B5FD0135EDB2B5E54FF6D3
:10164000146000F0AEFD4FF61C5000F0AAFD4FF6FE
:10165000103000F0A6FD4FF21C7000F0A2FD4EF617
:10166000147000F09EFD4FF45F4000F09AFD4FF4BF
:101670003F4000F096FD4FF4FE4000F092FD013532
:10168000EDB292E54FF61C6000F08BFD4FF6145062
:1016900000F087FD4FF61C3000F083FD4FF2107014
:1016A00000F07FFD4EF61C7000F07BFD4DF61470CF
:1016B00000F077FD4FF43F4000F073FD4FF4FE4023
:1016C00000F06FFD002570E54FF6146000F069FD35
:1016D0004FF6105000F065FD4FF6183000F061FD38
:1016E0004FF2107000F05DFD4EF61C7000F059FDD9
:1016F0004DF6147000F055FD4BF61C7000F051FDD6
:101700004FF4FE4000F04DFD0135EDB24DE54FF6D2
:10171000106000F046FD4FF6145000F042FD4FF609
:10172000103000F03EFD4FF2187000F03AFD4EF61A
:10173000107000F036FD4DF61C7000F032FD4BF6D7
:10174000147000F02EFD4FF4FE4000F02AFD01352C
:10175000EDB22AE54FF6186000F023FD4FF6105069
:1017600000F01FFD4FF6143000F01BFD4FF210701B
:1017700000F017FD4EF6187000F013FD4DF61070D6
:1017800000F00FFD4BF61C7000F00BFD4FF4FE4017
:1017900000F007FD0135EDB207E54FF6106000F0EF
:1017A00000FD4FF6185000F0FCFC4FF6103000F032
:1017B000F8FC4FF2147000F0F4FC4EF6107000F0DC
:1017C000F0FC4DF6187000F0ECFC4BF6107000F0D9
:1017D000E8FC4FF4FE4000F0E4FC0135EDB2E4E437
:1017E0004FF6506000F0DDFC4FF6105000F0D9FCD1
:1017F0004FF6183000F0D5FC4FF2107000F0D1FC1D
:101800004EF6147000F0CDFC4DF6107000F0C9FCDF
:101810004BF6187000F0C5FC4FF4FE4000F0C1FC20
:101820000135EDB2C1E44FF6506000F0BAFC4FF65E
:10183000505000F0B6FC4FF6103000F0B2FC4FF202
:10184000187000F0AEFC4EF6107000F0AAFC4DF6D9
:10185000147000F0A6FC4BF6107000F0A2FC4FF4E0
:10186000FE4000F09EFC0135EDB29EE44FF61060A4
:1018700000F097FC4FF6505000F093FC4FF65030BC
:1018800000F08FFC4FF2107000F08BFC4EF61870D9
:1018900000F087FC4DF6107000F083FC4BF61470DE
:1018A00000F07FFC4FF4FE4000F07BFC0135EDB210
:1018B0007BE44FF6186000F074FC4FF6105000F017
:1018C00070FC4FF6503000F06CFC4FF2507000F09E
:1018D00068FC4EF6107000F064FC4DF6187000F0D5
:1018E00060FC4BF6107000F05CFC4FF4FE4000F022
:1018F00058FC0135EDB258E44FF6F06000F051FCB1
:101900004FF6185000F04DFC4FF6103000F049FC37
:101910004FF2507000F045FC4EF6507000F041FC64
:101920004DF6107000F03DFC4BF6187000F039FCDD
:101930004FF4FE4000F035FC0135EDB235E44FF6D2
:10194000806000F02EFC4FF6F05000F02AFC4FF6BD
:10195000183000F026FC4FF2107000F022FC4EF61A
:10196000507000F01EFC4DF6507000F01AFC4BF663
:10197000107000F016FC4FF4FE4000F012FC013530
:10198000EDB212E44FF47E4000F00BFC4FF68050B5
:1019900000F007FC4FF6F03000F003FC4FF2187037
:1019A00000F0FFFB4EF6107000F0FBFB4DF65070A0
:1019B00000F0F7FB4BF6507000F0F3FB4FF4FE40E5
:1019C00000F0EFFB0135EDB2FFF7EFBB4FF61C6007
:1019D00000F0E7FB4FF47D4000F0E3FB4FF6803072
:1019E00000F0DFFB4FF2F07000F0DBFB4EF61870FA
:1019F00000F0D7FB4DF6107000F0D3FB4BF65070A3
:101A000000F0CFFB4FF4FE4000F0CBFB0135EDB210
:101A1000FFF7CBBB4FF6146000F0C3FB4FF61C5032
:101A200000F0BFFB4FF47B4000F0BBFB4FF2807037
:101A300000F0B7FB4EF6F07000F0B3FB4DF61870F7
:101A400000F0AFFB4BF6107000F0ABFB4FF4FE4024
:101A500000F0A7FB0135EDB2FFF7A7BB4FF6106012
:101A600000F09FFB4FF61C5000F09BFB4FF614302C
:101A700000F097FB4FF21C7000F093FB4FF46F40A7
:101A800000F08FFB4DF6807000F08BFB4BF6F07092
:101A900000F087FB4FF4FE4000F083FB0135EDB210
:101AA000FFF783BB4FF6186000F07BFB4FF610503A
:101AB00000F077FB4FF61C3000F073FB4FF2147010
:101AC00000F06FFB4EF61C7000F06BFB4FF45F40B4
:101AD00000F067FB4BF6807000F063FB4FF4FE40B4
:101AE00000F05FFB0135EDB2FFF75FBB4FF6106012
:101AF00000F057FB4FF6185000F053FB4FF6103034
:101B000000F04FFB4FF21C7000F04BFB4EF61470D0
:101B100000F047FB4DF61C7000F043FB4FF43F40D4
:101B200000F03FFB4FF4FE4000F03BFB0135EDB20F
:101B3000FFF73BBB4FF6106000F033FB4FF6185039
:101B400000F02FFB4FF6103000F02BFB4FF21C7013
:101B500000F027FB4EF6147000F023FB4DF61C70CE
:101B600000F01FFB4FF43F4000F01BFB4FF4FE4022
:101B700000F017FB0025FFF718BBBDE8F88300BF96
:101B800030B483080A4A023352F8234000F00300BD
:101B900080000F25854024EA050442F8234052F8CE
:101BA00023408140214342F8231030BC704700BFDE
:101BB0000038014011B1012908D0704708490B686D
:101BC000012202FA00F018430860704704490B68CC
:101BD000012202FA00F023EA00000860704700BF0B
:101BE000003C014001290FD011B1022918D07047E3
:101BF000114B9968012202FA00F001439960DA68FA
:101C000022EA0000D86070470B4BD968012202FA23
:101C100000F00143D9609A6822EA0000986070479A
:101C2000054AD168012303FA00F00143D1609368AB
:101C300018439060704700BF003C0140014B1860A2
:101C4000704700BF0801002008B5044B1B68984787
:101C5000034A536943F00103536108BD08010020A2
:101C6000003C014008B5044B5B689847034A536940
:101C700043F00203536108BD08010020003C01400D
:101C800010B4012817D018B1022826D010BC704714
:101C9000A1F10D03DBB2022BF8D9174B18684900EC
:101CA00003248C4020EA04001860186802FA01F14D
:101CB00001431960EAE78B1EDBB2022BE6D90F4B1A
:101CC0001868490003248C4020EA04001860186852
:101CD00002FA01F101431960D8E7094B186849007D
:101CE00003248C4020EA04001860186802FA01F10D
:101CF00001431960CAE700BF00000240000402402F
:101D00000008024030B4012821D018B102283AD08E
:101D100030BC7047A1F10D00C0B20228F8D92648A6
:101D2000446801258D4024EA0504446044688A40E3
:101D3000224342608268490003248C4022EA040264
:101D40008260826803FA01F111438160E0E7881E36
:101D5000C0B20228DCD91948446801258D4024EA24
:101D60000504446044688A40224342608268490016
:101D700003248C4022EA04028260826803FA01F1A3
:101D800011438160C4E70E48446801258D4024EA70
:101D90000504446044688A402243426082684900E6
:101DA00003248C4022EA04028260826803FA01F173
:101DB00011438160ACE700BF000002400004024014
:101DC0000008024010B4012817D018B1022826D00C
:101DD00010BC7047A1F10D03DBB2022BF8D9174BF1
:101DE000D868490003248C4020EA0400D860D868F1
:101DF00002FA01F10143D960EAE78B1EDBB2022B44
:101E0000E6D90F4BD868490003248C4020EA04002F
:101E1000D860D86802FA01F10143D960D8E7094BCC
:101E2000D868490003248C4020EA0400D860D868B0
:101E300002FA01F10143D960CAE700BF0000024085
:101E4000000402400008024010B4012815D018B167
:101E5000022822D010BC7047A1F10D03DBB2022B87
:101E6000F8D9144B586901248C4020EA04005861C9
:101E700058698A4002435A61ECE78B1EDBB2022BA1
:101E8000E8D90D4B586901248C4020EA04005861C0
:101E900058698A4002435A61DCE7084B58690124BB
:101EA0008C4020EA0400586158698A4002435A6114
:101EB000D0E700BF000002400004024000080240DA
:101EC000072926D8012810D010B1022819D0704750
:101ED000A1F10D03DBB2022B49D92548036A890021
:101EE00002FA01F10B43036270478B1EDBB2022B37
:101EF0003DD92048036A890002FA01F10B430362CD
:101F000070471D48036A890002FA01F11943016212
:101F10007047A1F10803DBB2072B28D8012811D0A4
:101F200010B102281BD07047A1F10D03DBB2022BC8
:101F30001DD90F48436A0839890002FA01F1194393
:101F4000416270478B1EDBB2022B10D90948436AED
:101F50000839890002FA01F11943416270470448C7
:101F6000436A0839890002FA01F119434162704756
:101F7000000002400004024000080240084A1368C2
:101F800043F001031360064B1B6813F0020FFAD0F5
:101F9000034B9A6822F003029A609A689A6070472D
:101FA00000380240032822D8DFE800F0020A121AA3
:101FB0000F48036B012202FA01F1194301637047D4
:101FC0000B48436B012202FA01F119434163704748
:101FD0000748036C012202FA01F1194301647047BA
:101FE0000348436C012202FA01F11943416470472E
:101FF0000038024010B44409064951F8243000F07A
:102000001F00012202FA00F0184341F8240010BC1E
:10201000704700BF00E100E0054B1870054B064A11
:102020001A60000240F0BF6040F400301860704752
:10203000480100200CED00E00000FA051E4B1B7863
:10204000033B042B36D8DFE803F0030C17222D00E6
:102050000A01D2B200F1604000F5614080F800232F
:102060007047120142EA4112D2B200F1604000F51D
:10207000614080F800237047120142EA8112D2B217
:1020800000F1604000F5614080F8002370471201C4
:1020900042EAC112D2B200F1604000F5614080F81E
:1020A000002370471201D2B200F1604000F5614098
:1020B00080F80023704700BF48010020144B1A68C5
:1020C00022F040021A601A6822F400621A601A684C
:1020D00022F038021A601A6842F002021A601A6886
:1020E00022F001021A601A6842F004021A601A68AB
:1020F00022F080021A601A6842F480721A601A682C
:1021000042F400721A601A6842F040021A60704786
:1021100000300140074B9B6813F0020FFAD0054BCB
:10212000D860044B9B6813F0010FFAD0014BD868BC
:1021300080B270470030014008B50122082100201C
:10214000FFF79EFD00231A4608211846FFF7DAFD27
:1021500001220A210020FFF793FD00231A460821DF
:102160001846FFF7CFFD012209210020FFF788FD67
:1021700000231A4608211846FFF7C4FD08BD08B51C
:1021800001220A210020FFF75FFE022000F070F913
:1021900000220A211046FFF757FE022000F068F9DE
:1021A00008BD38B505460F240BE045FA04F202F0ED
:1021B000010208210020FFF747FEFFF7E0FF013C86
:1021C00064B2002CF1DA012209210020FFF73CFE65
:1021D000022000F04DF9002209211046FFF734FEDD
:1021E000022000F045F938BD024A136823F00403C9
:1021F0001360704710E000E0044B00229A605860C2
:102200001A6842F001021A60704700BF10E000E057
:1022100010B1012806D07047054A136843F0020345
:1022200013607047024A136823F00203136070477B
:1022300010E000E0024B58689B68C01A704700BF6E
:1022400010E000E008B5064A136823F001031360AC
:10225000044B1960FFF7D0FF034B01221A7008BD31
:1022600010E000E04C0100204901002008B5064BB9
:102270001B6823B19847054B1B78012B00D008BD84
:10228000014B00221A60FAE74C01002049010020AE
:1022900010B50446012200210846FFF7D5FD20466F
:1022A000FFF738FF10BD10B5044600221146104656
:1022B000FFF7CAFD2046FFF72DFF10BD08B501222C
:1022C00011460020FFF7C0FDC82000F08BF8002267
:1022D00001211046FFF7B8FD022000F083F801222B
:1022E00011460020FFF7B0FDC82000F07BF8002267
:1022F00001211046FFF7A8FDC82000F073F8012265
:1023000011460020FFF7A0FD094800F06BF81120EE
:10231000FFF7C9FF074800F065F83A20FFF7C3FF51
:102320000520FFF7B5FF2920FFF7BDFF08BD00BF5F
:1023300080A90300E093040038B505462A20FFF782
:10234000B2FF0020FFF7A4FF0020FFF7A1FF00204D
:10235000FFF79EFF7F20FFF79BFF2B20FFF7A3FFD8
:102360000020FFF795FF0020FFF792FF0020FFF706
:102370008FFF9F20FFF78CFF2C20FFF794FF002496
:102380000EE035F814006FEA1020C0B2FFF780FFAE
:1023900035F81400C043C0B2FFF77AFF0134A4B28D
:1023A000B4F5A04FEDD338BD4FF080431A6822F04A
:1023B00070021A601A6842F010021A601A6842F03D
:1023C00080021A601A6842F004021A601A6822F049
:1023D00002021A60DA6822F00102DA6007229A62C9
:1023E0007047000010B4214BA3FB0023DB0BC3EBB1
:1023F0000344041B19E04FF080434FF6FF72DA628A
:102400005A6942F001025A611A6842F001021A60E8
:102410004FF080431B6913F0010FF9D04FF0804259
:10242000136923F0010313610B46591E002BE2D1FF
:102430004FF08043DC625A6942F001025A611A6827
:1024400042F001021A604FF080431B6913F0010F44
:10245000F9D04FF080431A6922F001021A611A681C
:1024600022F001021A6010BC704700BF018000809A
:1024700010B41E4BA3FB0023DB0BC3EB0344041B74
:1024800016E01B4B4FF6FF72DA625A6942F0010206
:102490005A611A6842F001021A60154B1B6913F069
:1024A000010FFAD0124A136923F0010313610B469E
:1024B000591E002BE5D10E4BDC625A6942F0010235
:1024C0005A611A6842F001021A60094B1B6913F045
:1024D000010FFAD0064B1A6922F001021A611A683C
:1024E00022F001021A6010BC704700BF018000801A
:1024F0000004004008B52E4B1B7833B12D4B1A68F1
:102500002D4B1A602A4B00221A702B4B1B68012B93
:1025100010D9294A1368013B1360284B1A6922F02D
:1025200001021A614FF6FF72DA625A6942F0010243
:102530005A6108BD204B1B68012B23D0204B1B7810
:1025400043B91E4BDA6822F00102DA601A6822F001
:1025500001021A601B4B1B689847184A136923F045
:1025600001031361134B1B68EBB113464FF6FF7267
:10257000DA62124A536943F0010353610C4B0122A2
:102580001A70D6E70C4A1368013B13600B4B1A69AB
:1025900022F001021A610C4A1268DA625A6942F0AA
:1025A00001025A61C5E7084B1A68044BDA62E0E79A
:1025B00010000020580100205001002000040040BD
:1025C000600100205C0100205401002070B594B02F
:1025D00000240194204B1A6C42F080521A641B6C48
:1025E00003F080530193019B02941C4B1A6842F440
:1025F00040421A601B6803F440430293029B01238C
:10260000089309934FF480030F93102310934FF412
:10261000A8731193042612960723139302250E958F
:1026200008A8FDF7CBFF0F230393049505944FF4FF
:10263000805306930794294603A8FEF721FAFEF774
:102640004BFB074BA3FB00308009FDF783FF3046AF
:10265000FDF796FF14B070BD0038024000700040D6
:10266000D34D621008B5FDF7F1FEFFF7AFFFFEF79F
:102670008BFC08BD10B5124B1B7863B91149124889
:10268000FFF7E0FD0E4B01221A70104B1B78DBB2F6
:10269000322B12D010BDFFF7CDFD0C4C2378DBB2EE
:1026A00040080B4A42F8230006490748FFF7CAFDD5
:1026B00023780133DBB22370E7E700BFEAE700BF0E
:1026C0002D02002099280008A08601002C0200207D
:1026D0006401002008B5FFF751FC00210846FFF710
:1026E00061FC01210020FFF75DFC0E210320FFF7B4
:1026F00059FC00210220FFF755FC01210220FFF7C1
:1027000051FC0C210320FFF74DFC0122002108465B
:10271000FFF7B6FA012211460020FFF7B1FA0023B5
:102720001A4619461846FFF7EDFA00231A4601210A
:102730001846FFF7E7FA002211460120FFF7A0FA3A
:10274000012200211046FFF73DFB02220421002058
:10275000FFF796FA022205210020FFF791FA0222E4
:1027600006210020FFF78CFA022207210020FFF744
:1027700087FA052204210020FFF7A2FB052211465B
:102780000020FFF79DFB052206210020FFF798FBA4
:10279000052207210020FFF793FBFFF7CDFCFEF792
:1027A00041FCFFF701FEFFF789FCFFF71DFDFFF776
:1027B00085FD0020FFF72CFD01210020FFF7E0F947
:1027C00001210020FFF70EFA00210846FFF7F2F979
:1027D0001848FFF733FA0320FFF71EFC00220121FF
:1027E0000620FFF72BFC0620FFF704FC0CE0124C40
:1027F000012323701148FFF79FFD114B22464CF631
:102800006E511048FEF768FC0F4B1B78012BEED081
:10281000022B01D000BFF7E7074C012323700B48C0
:10282000FFF78AFD064B22464BF664110848FEF777
:1028300053FCE9E7752600083002002008BB0108B8
:10284000310200203434000861010020085B0208D6
:10285000A40101080C4B1B889BB2802B02D0842B57
:1028600009D07047094B00221A700123084A1370DF
:10287000084A13707047054B00221A700223044A5D
:102880001370044A137070472E020020300200209B
:10289000310200206101002008B51F4B00221A8080
:1028A0001E4B1A6842F20F739A422CD91B4B1A68BE
:1028B00043F698239A4226D8002308E0012282405A
:1028C00015490888024392B20A800133DBB2072B14
:1028D00017D8184603F11101104A52F82120B2F519
:1028E0007A7FEBD30D4A52F82120B2F5FA6FE5D882
:1028F000012202FA03F008490A8822EA00020A804B
:10290000E3E7FFF7A7FF0023054A1370034A1360AC
:10291000044A137008BD00BF2E020020640100208D
:102920002D0200202C02002070470000014B186887
:10293000704700BF14000020034613F8012B002A43
:10294000FBD1181A0138704730B5141E05469BB0EC
:10295000184605DA8B232B604FF0FF301BB030BDDB
:102960004FF40273ADF80C3014BF04F1FF3323466B
:10297000029305934FF6FF7300910491ADF80E306A
:1029800002461E9B6946284600F072F8431CBCBFF5
:102990008B232B60002CE1D0009B00221A70DDE716
:1029A00007B5009313460A46014603480068FFF73F
:1029B000CBFF03B05DF804FB140000202DE9F047C5
:1029C0008E689E4282460C469046994637D88A8940
:1029D00012F4906F31D0256809696F1A6569022376
:1029E00005EB450595FBF3F509F101033B449D42D9
:1029F00038BF1D46530530D5294600F07BFB0646FF
:102A000050B90C23CAF80030A38943F04003A381D6
:102A10004FF0FF30BDE8F0873A46216900F0F8FA40
:102A2000A38923F4906343F08003A3812661656149
:102A30003E44ED1B2660A5604E464E4500D94E46ED
:102A400032464146206800F0EEFAA3689B1BA36063
:102A500023681E4426600020DCE72A4600F0A4FB21
:102A600006460028E2D12169504600F0F5FAC8E791
:102A70002DE9F04F9DB0804603938B891D060C46CF
:102A800016460FD50B696BB9402100F033FB20606F
:102A9000206128B90C23C8F800304FF0FF30C7E0A0
:102AA000402363610023099320238DF829303023CC
:102AB0008DF82A304FF0010B37463D4615F8013BA3
:102AC0000BB1252B3ED1B7EB060A0BD0534632464D
:102AD00021464046FFF772FF013000F0A480099BB9
:102AE000534409933B78002B00F09D8000234FF066
:102AF000FF32CDE90523049307938DF853301A93E1
:102B00002F46052217F8011B4F4800F031FA049BAD
:102B1000D0B9D90644BF20228DF853201A0744BFEC
:102B20002B228DF853202A782A2A15D0079A2F466F
:102B300000200A25394611F8013B303B092B4DD9BD
:102B4000B8B10FE02F46B8E73F4A801A0BFA00F001
:102B5000184304903D46D3E7039A111D1268039170
:102B6000002A01DB079204E0524243F0020307927D
:102B700004933B782E2B0CD17B782A2B33D1039BEB
:102B80001A1D1B680392002BB8BF4FF0FF330237AA
:102B900005932E4D39780322284600F0E9F938B123
:102BA0004023401B03FA00F0049B034301370493C6
:102BB000397827488DF8281006227E1C00F0D8F9B5
:102BC000002838D0234B13BB039B073323F00703A4
:102BD00008330393099B4B4409936DE705FB0232CD
:102BE00001200F46A6E700230137059319460A2561
:102BF000384610F8012B303A092A03D9002BC8D0E7
:102C00000591C6E705FB012101230746F0E703AB69
:102C100000932246104B04A94046AFF30080B0F168
:102C2000FF3F8146D6D1A3895B063FF536AF0998B1
:102C30001DB0BDE8F08F03AB00932246064B04A9FC
:102C4000404600F081F8EAE708FB02080EFB0208A4
:102C500012FB020800000000BD2900082DE9F04722
:102C600091461F468A680B69DDF820809342B8BF01
:102C70001346C9F8003091F8432006460C4612B1BD
:102C80000133C9F800302368990642BFD9F80030F3
:102C90000233C9F80030256815F0060507D104F1A4
:102CA000190AE368D9F800209B1AAB4228DC94F893
:102CB00043302268003318BF012392062DD404F15B
:102CC000430239463046C047013020D02368E568CA
:102CD000D9F8002003F00603042B08BFAD1AA3683F
:102CE00022690CBF25EAE57500259342C4BF9B1AF3
:102CF000ED184FF000091A344D451AD1002008E0B4
:102D00000123524639463046C047013003D14FF0C7
:102D1000FF30BDE8F0870135C3E7E1185A1C3020C9
:102D200081F84300224494F8451082F8431002339E
:102D3000C5E70123224639463046C0470130E6D078
:102D400009F10109D8E700002DE9F04301F1430C36
:102D50000C46097E85B06E291746064698460C9AA1
:102D600000F0B38022D8632936D00AD8002900F0B9
:102D7000B980582900F0838004F1420584F842109C
:102D800032E0642901D06929F6D12068136805066C
:102D900003F104012AD51B681160002B03DA2D22F0
:102DA0005B4284F843206F480A2239E0732900F01F
:102DB0009D8008D86F2920D07029DDD1236843F089
:102DC0002003236003E0752917D07829D4D1782314
:102DD00084F84530644855E01368191D1B6811607C
:102DE00004F1420584F8423001238CE01B68116035
:102DF00010F0400F18BF1BB2CFE713682568181DED
:102E00001060280601D51B6802E06806FBD51B8808
:102E100054486F2914BF0A220822002184F8431065
:102E20006568A560002DC0F29580216821F004013D
:102E30002160002B3DD1002D40F08E806546082A90
:102E40000BD12368DB0708D5236962689A42DEBF8D
:102E5000302305F8013C05F1FF35ACEB0503236198
:102E6000CDF800803B4603AA21463046FFF7F6FE28
:102E700001304DD14FF0FF3005B0BDE8F083394847
:102E800084F84510136821681D1D1B6815600A062B
:102E90000BD5CA0744BF41F0200121601BB922684D
:102EA00022F0200222601022B7E74D0648BF9BB2F5
:102EB000EFE76546B3FBF2F102FB1133C35C05F8A3
:102EC000013D0B460029F5D1B9E713682568616912
:102ED000181D106028061B6801D5196002E06A06FB
:102EE000FBD51980002323616546B9E71368191DD6
:102EF00011601D6862680021284600F039F808B1A9
:102F0000401B606063682361002384F84330A7E7B7
:102F100023692A4639463046C0470130AAD0236883
:102F20009B0713D4E068039B9842B8BF1846A3E7F9
:102F300001234A4639463046C04701309AD0013510
:102F4000E368039A9B1AAB42F2DCEBE7002504F13D
:102F50001909F5E7002BACD1037884F8423004F16D
:102F600042056CE719FB02082AFB0208000000007A
:102F700001F0FF01102A2BDB10F0070F08D010F82A
:102F8000013B013A8B422DD010F0070F42B3F6D12E
:102F9000F0B441EA012141EA014122F007047FF047
:102FA00000070023F0E80256083C85EA010586EA9E
:102FB000010685FA47F5A3FA87F586FA47F6A5FADA
:102FC00087F68EB9EED1F0BC01F0FF0102F00702E6
:102FD00032B110F8013B013A83EA010313B1F8D191
:102FE0000020704701387047002D06BF3546033872
:102FF000073815F0010F07D1013015F4807F02BFAB
:10300000013015F4C03F0130F0BC0138704700BFFB
:1030100010B5431E0A44914200D110BD11F8014B76
:1030200003F8014FF7E7884210B501EB020307D818
:10303000421E99420AD011F8014B02F8014FF8E7FD
:103040008342F5D98118D21AD34200D110BD13F8AA
:10305000014D01F8014DF7E738B50546002945D087
:1030600051F8043C0C1F002BB8BFE41800F0D2F854
:103070001F4A1368104633B9636014602846BDE8E0
:10308000384000F0C8B8A3420CD9216862189342B6
:1030900004BF1A685B68636004BF52182260046052
:1030A000ECE713465A680AB1A242FAD919685818CF
:1030B000A0420BD120680144581882421960DDD12A
:1030C000106852685A6001441960D7E702D90C238E
:1030D0002B60D3E7206821188A4204BF1168526828
:1030E000626004BF091821605C60C7E738BD00BF9B
:1030F0003402002070B5CD1C25F0030508350C2DD9
:1031000038BF0C25002D064601DBA94203D90C234C
:103110003360002070BD00F07DF8214A146821461C
:1031200091B9204C23681BB9304600F063F8206049
:103130002946304600F05EF8431C24D10C2333604E
:10314000304600F068F8E4E70B685B1B18D40B2BE3
:103150000FD90B60CD50CC18304600F05CF804F16C
:103160000B00231D20F00700C31AD3D05A42E250AF
:10317000D0E78C424B6816BF636013600C46EBE7E8
:103180000C464968CCE7C41C24F00304A04205D0D7
:10319000211A304600F02EF80130CFD02560DBE751
:1031A0003402002038020020F8B5074614460E46C7
:1031B00021B91146BDE8F840FFF79CBF22B9FFF7DF
:1031C0004BFF25462846F8BD00F026F8A0420FD256
:1031D00021463846FFF78EFF05460028F2D03146DB
:1031E0002246FFF715FF31463846FFF735FFE9E77E
:1031F0003546E7E738B5064C002305460846236008
:10320000FDF77CFD431C02D1236803B12B6038BD60
:10321000400200207047704751F8043C181F002BF3
:10322000BCBF0B58C01870472E2E2F73797374656E
:103230006D2F7372632F73746D333266342D686132
:103240006C2F73746D3332663478785F68616C5FAD
:10325000636F727465782E63000000000000000048
:103260000102030401020304060708092E2E2F732E
:10327000797374656D2F7372632F73746D33326657
:10328000342D68616C2F73746D3332663478785FD7
:1032900068616C5F7263632E6300000061626F722D
:1032A0007428292C2065786974696E672E2E2E008B
:1032B0006173736572745F706172616D2829206635
:1032C00061696C65643A2066696C65202225732209
:1032D0002C206C696E652025640A000053746163BC
:1032E0006B206672616D653A0A0000002052302042
:1032F0003D2020253038580A00000000205231209F
:103300003D2020253038580A00000000205232208D
:103310003D2020253038580A00000000205233207C
:103320003D2020253038580A00000000205231325C
:10333000203D20253038580A00000000204C522043
:103340003D2020253038580A00000000205043203E
:103350003D2020253038580A0000000020505352EC
:10336000203D20253038580A000000004653522FD7
:103370004641523A0A0000002043465352203D2065
:1033800020253038580A00002048465352203D205E
:1033900020253038580A00002044465352203D2052
:1033A00020253038580A00002041465352203D2045
:1033B00020253038580A0000204D4D464152203D0E
:1033C00020253038580A00002042464152203D2036
:1033D00020253038580A00004D6973630A00000048
:1033E000204C522F4558435F52455455524E3D2074
:1033F000253038580A0000005B48617264466175E8
:103400006C745D0A000000005B4275734661756C68
:10341000745D0A005B55736167654661756C745D28
:103420000A00000000000000000000000102030488
:103430000607080984979EB8C9C3B9BC9F918D89B6
:1034400091A4B5AEB6BCBAB5B2A5A39D848076668C
:103450007886919B98998A6E5A4D556661778B81D3
:103460007D7468736E676F554446463C36425657C6
:10347000544539302E3B4960697F837A7B847D7661
:103480007E747E7B778695A2B0B9B4968791766676
:1034900076898E909193938792948C7B776856610E
:1034A0006D8399A4A7A48675686879889A9FA6AC4D
:1034B000ACB5BAB5C3BFB09A8E89848890999C8FF9
:1034C0007971676A75898D8E8B908A7E7F8D8D80EC
:1034D000796C6A60657C8D7E81613F322B425563D9
:1034E000737D6C695C5B5B6E6C695E4F5754657590
:1034F000909A8F6F67534C6076909D9AA3A89A9F7D
:10350000AFB0ADAC98958387959CA3A1815B4949E9
:103510005F75868F94827266686C75838973696241
:103520006D8894AFB1987D6F697B96B0BDBABDB818
:103530009F8990939B8F807B6972889CA0908271F9
:103540005A5C768DA2A7A29E8E777075788F86734F
:103550005D576E78817A6C53402D374A617F8A8E31
:10356000867970716B7B7E79606071838E847C64F8
:10357000594F5E6780A2B6B4A4989C948DA69B9088
:103580007F7C7B7D8A927B6357555D60677A8E86F0
:103590007F72766D75806F676E747F96A4A99E8D1D
:1035A00079828A9DB7CAC6C2C0A79E909A97917623
:1035B0006C7D7C86898882786B80838BA6AB9891A2
:1035C0008D898281928B81706B6B6E6F6D523836F4
:1035D00034435664859388807C726F7763625F5B47
:1035E00065747A887D624F454F607D94A3A1A69D46
:1035F0009C91A5AEA4998A87848D7F75695E4849A0
:10360000556E8E9D979686716F706B66716164764C
:103610008D9AAC9F877A797F7F97BCCCC6C3B5B1B2
:10362000A7B5A39A8A817E7D8D948871705A627342
:1036300098AEB0A7A89D88737D8D827F6B747B82C6
:103640007C866B5145353C536B767B79766A6D6B26
:10365000756664625E5B67868D796257424C506521
:10366000819493928D959C97A599917D8390939247
:1036700099886956505C718485918376636562731D
:1036800087756C62698193A4AC917D746D7698B3F3
:10369000C3C2B6B2ACABA6A7B0997E71627B96A04E
:1036A0009A8D6E575266849CB6B6AF988E8C998E62
:1036B0008F907E6F535D77898B7649352A294568CF
:1036C000777B756F6A708291847A725757516581E2
:1036D0008F85704D3B3E57727B8E95887B8B94A077
:1036E000AA9C9492858D9494A3AA9A836C56515A5D
:1036F00060686A6F7A7F8292968B7C6872727B8533
:103700008B98AEB4A69A82868687919996A8B0AE19
:10371000B1A29E9B8A7D8F87757A7A869299A196AF
:103720007D766C5E6C83989DA19F94888079736888
:1037300063614B575F686F79706457464644566BB8
:1037400073737A7E89928E929282605B5F5E656807
:10375000767B878D8E796E717880929699A59A98EE
:103760009A989B968476727B69615E6A6A74737CB0
:10377000765D5865686C8EA0A9A7B0AFAC9AA4A47A
:10378000A28E959895A5A59F97A29C957473696440
:1037900067758491A0A7B4B3AEA59B83746272745D
:1037A00075777B8683858275584D373645505C68C2
:1037B0006E7789908F8D816A614F565E646F7B7DD5
:1037C00083958A786053495057738A91999DA7A928
:1037D000ABAFAC9588727C7E7C8384858691868035
:1037E0005E463C42526B7E8A938F959595969B8858
:1037F000827C7E828794979DA2AFA89B7F786D5E26
:103800006981959FA6A8ADA49DA09C817C73757DC0
:10381000899594908F988E83705F404354606A7945
:10382000898C8E8B8F89785D604F566572776E7349
:103830007E81746F55504545506B76818E8B919C7F
:103840009F9A94867C6D7F818F9B9B9DA095867FA0
:10385000685549526C767380878089939293827CF5
:10386000666B717A87888E9EAD9E967F695E677360
:10387000808DA0AAADB0BAB8B1998D80797C7782DD
:1038800080909BA19A9E8D766A5B5C66707A868F2B
:10389000999892908378655B5F636B6A6B737F7FA7
:1038A0007F6E57535558626A65737979888F958909
:1038B000766A72736F747887909B938C787778753B
:1038C00081959A979D9798979A8B7D70786E606393
:1038D000697B80837E806D68656B727E868993A02C
:1038E000ABAAA5928B7B7F7F7E7B8E95979D9794CD
:1038F0008271677C848F8D9096A6A7ADA8A89C80C6
:103900007C6C6764717B8D80817560575B686A68C9
:1039100068727F87898D88897B76696C655D5C6359
:1039200064635F556263697D88808084888886854A
:103930008D8489898D98999E9FA1917B5C575F6941
:10394000787F8F8D8E979D8D8375626C6667708191
:10395000869492928B77777A817D7D7C8D98A4ADC9
:10396000ADA28E91928A87808892938986786D78AD
:103970007E8E9595919FA3A39883736E766E7673D2
:103980006A6E7C756C5E4E5A65676B746C79829456
:1039900096866D697160625F62697B77796A576349
:1039A0006B71767A6E879DA69F9A88878E818B85AC
:1039B00080879E92897263757A7E87846F7E858BFD
:1039C000887E6D7A8276766A687C91848D7B71754B
:1039D0007B7C898D8AA4ABA6A39D8FA29A8E8A7BBD
:1039E00071919686836C75858985908BA0AFA39322
:1039F0008B6E76867C7B74707A8A6E6F5D525C6D9E
:103A000067686462859D948B7B687C6F5A555C61A6
:103A10007C6F6468637582766C6F788D9D8F8E89FC
:103A200070878B807C8584ABAB8E7666677D7C6887
:103A3000737FA2B3AB838072858B6A545F6D88936A
:103A400076787E88949375716F8AA6A68F8A89A2EC
:103A5000BBA3887E869FA97C68697D9793716985E1
:103A6000A4B7AC8E8C8B888A6850617C9B9D6F5C00
:103A70005D6E80755A56607C998F7C797B8C9462E0
:103A80003C50718B824A3F5F778E89646C838D8F47
:103A90007C67788C87866E6379838A978272788256
:103AA000979E877881909D968B8B8B867B6A6A75B3
:103AB000787C7A7A817B78797E898E83726D707951
:103AC0007C7F879598989D989AA29E9192929699BC
:103AD0008E86898D897C747D86868488888A8C868A
:103AE000817F86827E7C7E7D726E6C73736F6A6866
:103AF000676E756E666F80847D7271757470746E9A
:103B00006E7474717074766F707B7E756A6B727789
:103B10007887808B979A9F999DA0948683788287D7
:103B20008B8B8B83716C6F777770655E6275778B2B
:103B300096979A87868088837F7677797F8E92A101
:103B4000A9AC9FA095ADA4A5A6907A76797380586C
:103B50006C6F6E67746F84A1969B99ADA1A38090E2
:103B6000946D484E63737C4755746B585D557990DE
:103B70007D8787918A91737987755C5161738651CE
:103B8000576B86766D6177A68C8698A7ADA98D83D5
:103B90009B956F6172848A885C6D7E825F5E6B909C
:103BA0008E797B8FA99B86758980876962639190E6
:103BB0008E7F8D9EA0888199A1A1869CA3BA988EA4
:103BC0007F8C797A655B6377868C8B70989F92780F
:103BD00088838F7A818F9B887C80707560715A563C
:103BE00045667371696C918E76576C6D7B687A81CE
:103BF0008A8B7E8D8C9477857671657B7D77766BED
:103C00008C847D668993897A77868D9180978B9550
:103C10008683948D6B64827D87676E7C7F60607F16
:103C20007D7E7E928E9B828EA08B8D7A8D97977AE9
:103C300098AEA393839C9E86517179705C7092A01C
:103C40009B8EA0A498918F978E695D7E95837D7BD6
:103C5000907B5840746C51475D68696A69908C80AC
:103C600081857E886A5D7E90757C7E9690795E7A8D
:103C7000705662707161666E97958690A5979C8468
:103C8000768DAF909394979688707F835855647A19
:103C9000707D7A918F86859780837C696E9284840B
:103CA0008E939C8C7D839F797783A08C95939C9D2C
:103CB000857D8E82818366678C857D9392948678DC
:103CC0007191736D7E947B7D7F81867E7684746234
:103CD000685A5A77805F736D7A6D6859796B617134
:103CE00088898A998C9485777D7C6A77645A758EE9
:103CF00078827F858078718376687D8F9996A89E7B
:103D0000A6927A8483717C7668879476858B8C8082
:103D10007564776F6276828A889894A49E94A09C3A
:103D2000919B91859AA58E999082716E6473705B58
:103D3000747F89819995A0938984767B6F645A8179
:103D40007A797D7E7D665D4E66585A687476829B70
:103D50009AA28383747170625F7593777B77848096
:103D600074686C6F56626F8A87999DABA69FAA8E06
:103D7000928879728C7A70787483706C68876D67BA
:103D8000717C8583948FA686978591928370767FC8
:103D90005D776F8E8696809387738296A592A690A4
:103DA000AC8C998A9C9677768093768C7895797985
:103DB0006371625F6C6E81728C89A17D90768D7962
:103DC0005E617A806B81728B65645873555B657731
:103DD000767787878D74857C91686C71907675781D
:103DE0008384777B83977A89859481908897808173
:103DF0007B8D8C7172858E757D7C9475706D8B72E8
:103E00007376918D8986918E838F99AC84868F9DF0
:103E10007F8786A7937C72807567717C887D8A8F87
:103E2000978E8F96A781717D8870696A7C725E5DBE
:103E3000726E5C6577887A767F8E7D758A97766BF1
:103E40008397866E6B83735754706C5D607D8B7D3A
:103E5000788A957F6E7E947E748FAE9C8F91A391AD
:103E600073688078666572857F80808E7A74838CB3
:103E70007B7F8D908D7E7D848572747D7472798751
:103E80009190888A968B8A938E8492A09890848B46
:103E9000877C6E7B807D83889694918C94878083C9
:103EA000796C6A7370746C77818078737671726BD9
:103EB000767B7C737A7B7A86817B77726A6C615EB3
:103EC0006C767D7A73716D73707173716B7C849293
:103ED0009C9D9D989D999B8A897F82766C666F7C5C
:103EE0007476737980938D908F8B89827D8894907E
:103EF0008F8881847F7679767370717B929A9E9A8F
:103F00009BA09C938181898E817C74838883807B34
:103F10007B7C7D7A82818B887E7477726C6B7A85EC
:103F20008278717579796C66697B767279849297FB
:103F30008E7E7E737068626C7C7B72706B74716F46
:103F4000636B7173798793A6A9A09C9D99938B7CD1
:103F50007F817A71736E7D75665B696C767A7C8120
:103F60008D8F8F8F8F9C968E81888A887E817980B5
:103F70007C776F777F83878088999C9798989B96AA
:103F8000978386938986827B8B8476687572797E27
:103F900067677F88888A889B92856D74706E73725C
:103FA00062768279646977707D646B706F71767503
:103FB00093888D727680787F6F6E5F7D847B718849
:103FC0007F9B8B8E90958B8290738B86896A747A97
:103FD00084747B7E7281757B76878A8E939B95A095
:103FE000948D8A80908087736E767B807D817B82C2
:103FF0008685818179827D838C8D9A9CA39BA19AF1
:104000008F8D72829B87857557525D6F5D4E5E5AAC
:104010006F6B707F799191877E91897F7B717F979C
:10402000838D847A8E6C695C59547599878596A5C1
:1040300094575D7B66617F617491B0B26D5F7678F5
:1040400063746B839DA480958C9D9682919AA285C2
:10405000956F5064A0A4CC9B655557655F6C6A85CD
:1040600081869194857C708C8D9A837C99959697A6
:10407000B0DBD99D8E6D6F563A49728F9793708DD4
:1040800082633F424D776676B0B796679EACB77451
:10409000564F654A40588BB0B2B088AA7B64304214
:1040A0005462646CA8BD9B5D7A90A26747506B8395
:1040B00058627EB8C6A1879097745C3E63729E9CDE
:1040C000AAD4C7937699919B553E536D5F50537C0C
:1040D000B2A18D748D7B4F41497F989F979ABEC73F
:1040E000976E9EA9AA63516998868089A1E0B088DD
:1040F00071826770323D688D87958397D17E444F7A
:104100008496843658808F837780CBC1875E5A70BF
:10411000713D46647792706D5A8F81651B5F96B0D2
:104120007D587C9CC68D8588D9C1A671777A725DD1
:10413000426D88987C88649FB06D3365A7BC9727D3
:10414000435F8E745E66A9C1967860898485678FA7
:10415000ABCAB19E9291D7AB4E4397A4AD61366185
:10416000838B6D7585BB9F754F4A6E725D55799DCA
:10417000BB8C867791A9774A60A6BEB35843628FFD
:104180007A686385A8886544717E8765636D8D93C1
:10419000817372AA986D3974B4D6A44F48669E8C08
:1041A0007E7DA9B8965F4657667F58667A9FA89627
:1041B0007B79B88A51386BAABF77444E619D867867
:1041C00073AAC4A87B6590A4AE878A97B7B7A67276
:1041D00076AD7E68517CA9B76438486EA68C6C6950
:1041E0009DAB9B654D6084926A7588A4B0A06C7A83
:1041F000A1724F366298A442212B4F9175645C9056
:10420000A09C775462818D6D7481ABA49E7993BC20
:1042100084706299BCCA79585E73A18B7D70AFB10E
:104220009C65445165856F7D87AFB4A68687A0697C
:10423000575481919F533A4C619E7D7473B3AD9DE9
:1042400070445470877D867EA3A6A17A90A2695D92
:1042500062A2B9B061475078A9908E89B4B5B27C9A
:104260005D647AA0999896AC9C9B747C7D4B40438E
:10427000798A853027375D92808E78A1A3925E502F
:104280005D7B9E858C909E929C6A828155646B9D1D
:10429000998E3E383B658B707D7CA9A6A5756C74A4
:1042A00095AB94958A9696967AA77F655F6C98935E
:1042B000813D434DA3B697978CACAB9369696987F1
:1042C000999D979FA49F9288B27C7D6983ABA178CA
:1042D000424C52A389877D7598907D6874728B8853
:1042E000817B807C8366776F47573B7882784C422E
:1042F0004A5B9E78877481978E82676F778D8991EC
:1043000090889A9786AC797265689A988C4F5C4BC6
:1043100099AC8F9E81AEA7A7927D7B819885918C69
:104320008E9E75838A565C5B8D98906C566761A8EB
:10433000888F8389A68D845F73778E8C79928BB0FA
:10434000A489A36D6957709686793A5448818C7711
:10435000896D9B9C926F656E7D8E757C888E9F7A31
:1043600094795A5F4E908C934D44475E9360856E6E
:1043700087AA928666748099908EA9A8C9A79EA1E3
:104380005D68597E9B8D532D4F4AA6928A9994BBA6
:10439000AC9F72777D89906C847E8D8B7B9B625104
:1043A00044699EA38E45525691B090A28BA8A595C4
:1043B000785C6F6A917B8D928E9D769964524150A4
:1043C000A49F994E4D5986B18B9B88A0A890856873
:1043D0007774887068766F8F6B876C4B5253A4A785
:1043E000A75C43535CA37F8F8A899E8E86718081F0
:1043F000999D90A194A4949E8A5E67549A96956321
:10440000324745928A8A8690B2979B71707B727F01
:10441000627675988B988B516B59A4A79868394927
:1044200057A6929B9589AD948A6D607C8894798B10
:1044300083A5A7A6AB5D634E91A19C734560589D73
:104440009C9EAC9EB094916D5C6D63776171759329
:104450008A878B49503E7EA08B6A3A4C5795928949
:10446000957C947D7F755F80819E87968CA4AA8CB5
:10447000A7586445709799894356428394879B81D6
:104480009C918E7768857C987B898D9A9885A661AA
:10449000745D86AB9082404C438C8F7F927DA59853
:1044A0009773679296A8838C899FA896B05D6D5A82
:1044B00087AD8B7626373E888C7DA193B8A2917A02
:1044C000748086895C7268757FA5972A61507E9397
:1044D00066561A43448E7C79A18FC9ADA793899FF4
:1044E00091A37E9292B0A988AE566948688B897B69
:1044F0001E313D9088839B82AB8D6D595A787782AF
:10450000658995AA9F9AC0859273ABC1BCA25E7360
:104510006BAF9FA1A698AE8B766663728176635C63
:10452000587A6B6A80585F427A828F6A425D61ABCB
:1045300088A8999BB6A18F8B8A8B9786838691B822
:10454000AAA0A37B8483BCB1BA7967646CA37FA063
:104550008EA09F946C60646B6C55444355605164AD
:10456000522A2224514233000600324548645770D3
:104570006D6F5965677C73657890A4AB96B4907A3B
:104580007189A9B09864786DA89FAAB6D1D8CBB22A
:10459000A0B8C2CDBDBEBDC3D2CBB8E0B49B91AC78
:1045A000C1C0855A6063987F7F799A9C8255555E19
:1045B000605C3E3C545E6D4B536F3F362C585F5FE2
:1045C0001215133F5B515C60887971495964878388
:1045D0008C8998A8BDA4BDBF988E98BFD4CE899E63
:1045E00091C3BAC2C9DDE6D6C4B6C5C4CDB5C6C28C
:1045F000D3C8C8A3CABD968298B4AF8A5B6D6781E1
:1046000063767DA5957D656F70746F61767B867925
:1046100070578D693A20586B702F162F3E43224AEF
:10462000638E6D583C615D60464D5E6E67535A5BAC
:1046300087593B357C7F6F2A36536860416892B05A
:104640008A79628E7F6C50768B968C8B939CAE6F42
:104650005060A09A904D656F7A645F879F9B6E75DE
:1046600072896F685F898899919B979DB0907F8DC3
:10467000BDB5C099ACA5B5AAB4D5EBEAD3D4D3DB0C
:10468000C7C3C5E0CED7D7E9CABFC5A27B83999C73
:104690009865674F5747545C7770615E555C484436
:1046A0003B5442534B614F565D34122C4C453F13E3
:1046B0002827371D2E4869665C5B5A5F4F565F7A24
:1046C00073807898979891695078928E72556E7031
:1046D00069536B88AC9B979CA29B93898B958B9D10
:1046E000A3BDADB2B08F7297A29B8D879D8B7E715B
:1046F00098AEC8BAAFB3ADA29C93877C7A8D9493E1
:104700007F919B7952677A775B586A68626388A267
:10471000A5A6BAC6B593908D97828AA6B9BEA1AB5D
:10472000B79E67829090716B787C7373908C9B912D
:104730009F958867727773605B7682956E848A67CF
:104740003856625B3E3B524B47506C646D638484C9
:10475000725563696A5A617D8598849D9F7E5784EE
:104760008D896C7482786B84A89B9681A8A7926AC5
:1047700082818A6D708796A49EBFAF8F64978B7776
:104780005B787A64587FA89A9586AB9D8A6E8B7CFD
:104790007E75858A89888FAD8753426E583F356212
:1047A0005C483B71847B70728D7A756F937E817EDD
:1047B0009B99A5A0B0C2A57C8AAF8F80779D837896
:1047C0007CB1AAA3ADC1C5A2999FA88B8386998409
:1047D0008C879A99855D828561555D6747435183D2
:1047E00065696D89776652675A414B576C62736A87
:1047F000977662538C7754485A5D313F5E8A788E43
:1048000092A18C836C765E5860756D7B8F8DAA87C4
:104810007279A67D6F677E70585D959FA0ADB9B91E
:10482000A3A0868A667F849A82A6ACB6BD9981933E
:10483000AB817A687958515E8A7B8DA0B09B818963
:10484000775F435564746E888DA9A184658D8169F5
:104850007079705C6588AB96B7CCD5B3B4A1A583ED
:104860006C758E9FAFBBB6D4B99686987B696D8206
:104870006A4B517B82808AA0946E6F73664338398D
:10488000565D7D7F8D8D7B576A6A494253736454B0
:104890004C786F7F929E9290887E6E5D5E5A5F68C4
:1048A0009296AAA2826C9386604C66776F62688249
:1048B000738F9FB39496948C6C5D5C6168719CA9B6
:1048C000C5B590769C896852666A6D6A7B8B7AA0C2
:1048D000B2BE9E9CA2A5806A676F6C79899AB8A7C0
:1048E0007B65806350374D59545E878C7D9AAFC38A
:1048F000A6A2AA9F7E706A767B93A5B7CDDBBD8FFB
:10490000A99B8D7B80827B728F9F8E98B0C0A8A15F
:10491000958C6A57595354657882959A8C61685D75
:1049200045383D542E3551786B71878987747E6B7D
:104930005A48515258697D8F91A2A2747C846E5856
:104940004C6F624550858685A0B2B6A3ACB39F7B01
:10495000787E7C767E9E9792AB93758F916F56632F
:10496000786B44629C9399A4A8AEA6A5A0866769BB
:10497000766E7B82988B9DAF8875888C56424E6789
:104980004C34668B85859FA9A6A3928F6F617B7B34
:10499000717788A2A2AEBBA594ADAC785F6E806F34
:1049A0007090A89297B9BE9F8D958B755D6E83654B
:1049B000647A959096A291617C8A542F426C6356DA
:1049C0005B90827D85977A7772786E515E67533EF1
:1049D00065747A729097776A95714A57897F5F49B3
:1049E0007D926D8799A394A092A87E6A6C634C6AAD
:1049F000839B907FAFA67269825E5E6693735C70E4
:104A0000ABA084ACBBBFA39DA69A6D6270746B868D
:104A100089938096B7964D679C765B5A7B57394948
:104A200083685A85A6A49084918F6B7A7C8563797C
:104A3000919E8E95C4BD9089CDB88A7D978E7877EA
:104A400094A797AECEB3939AA7A0755D6D7B5F696F
:104A50007B8090969DAF9263787D3E2B3E504E3A80
:104A60006493885A78909089737B685543563C3795
:104A70004C667972899FBE9C72768E726A76857D4D
:104A80006F687B71648A9C90828B7F805E556C71AD
:104A9000648285969A96949D906A728C97756B74D1
:104AA000876B63779284809BA38F8D969D8F7B8885
:104AB0009684708CA0A08E8798B39C6E61645549D3
:104AC00045575451628A85798FACB69FA69A9576E0
:104AD00067718074798A92A5C0CCC0AE9A8F979383
:104AE0007671799F8870768F9892A3A9A5979491F3
:104AF000837B756B6B66878B85666E777C7757419A
:104B000049705E564E5D584F55655558697B7D7EA0
:104B10007D7C816F80828C7B77768B8B8D8A809475
:104B20007A606E6F5E606F7F7260719781889FB2EE
:104B3000ABA19CA99777706B625B6F788185A3A10D
:104B4000AF9B85718D7E6B5F5D705D636A917FA1A8
:104B5000B6B8A79C9C937E666C73646D75808281E9
:104B60009D9FA98A7980977A6A757B6F61779F96F6
:104B70007D8FAAADA3A6999B7A8A8E827183A9AAFA
:104B80009F9AB3B69A6D728D6F505888967A748BCF
:104B9000937D8C9C95736F7F7B5645596B574C6CFE
:104BA000726B6A809E8E525A897A63626B6242414E
:104BB0006C80606F90A7918892957C5A6A725C3F76
:104BC000657E84787E9D8E6F8BAC7B5D697C6E5933
:104BD00063847E7597BFB8A5A2ABAB81696E7B7805
:104BE000898C8C9099B7A76A71926F475B746B4EF2
:104BF000569090909BC6BAA9AAA994595262683F50
:104C0000566F7C809DBB9E6D84A48154586B564B1F
:104C1000649B999AB4D4D1B9AAA997837281797601
:104C20007EA1B7ADD4BA8782AF8452425E64465348
:104C30008592798DA99A75676D7A4536545C49538A
:104C40007A8F8F9EA48783947A4B2F3B4027356BB6
:104C50007D7DA4AEB0AEA59E8B6A5D5F565C60772D
:104C60008396B39F7A8E9768473C4E463E62898D05
:104C7000A5C2BDAEACA6927F636D6974727F85904C
:104C8000B4AE848AB488604F605D535B828D9BB8FC
:104C9000C5BFB9B7A2A3796F5E6C6365696E9C9757
:104CA0007686AA7F665D624F4750766F7891A4A0A2
:104CB0009998919D81817C8C849E96A8C4AC8DC16D
:104CC000C391827A7C615B6790738698AAA5AC9742
:104CD00092907A7268625E7161868664709673578C
:104CE0005C573A2C385D5C517183818E9A88807054
:104CF0006B766C616D698C9C8487A88C777D6E5710
:104D00003B405A65678AA5A3B4BCB2A494847F7162
:104D1000616A6C878078A4C89F8A918D674B4F5CCD
:104D2000575F94A29E98A9A69A7A756F4F50668194
:104D3000938482BECFA397A2835F44575E4F5E8E5B
:104D4000A0A2ADA1A7A0856C6C4F53638394787D1E
:104D5000B8C0938A908B5A586F7B6080A8B7C3CC39
:104D6000BEA8A5938F75666471889B8486B6A87A61
:104D70007F7D63413E55594A688381959EA3817921
:104D8000717564544E536F6F5F6F9C886F79885F45
:104D90004F4B625A668299978CA89C8C6F6D6B669C
:104DA00058686D84856F77AF9F8C8E8B755E70773A
:104DB0007460929EB3A3A3BAA6866D6F83726B6D67
:104DC0007C8C7C7296A67E9B9181695F767D5E70FD
:104DD000A8ABA5ACA1A8A1785B546972786B74816B
:104DE000817E9A6E6A7D7863425567755877B5BE45
:104DF000B2C8C3CBBFA891838090B891988F777FBA
:104E000096837A868081685A7078526D8E9D9895C7
:104E10009A9A806A72565161877F7D87767C758108
:104E2000836456665C2F324B544073988A9BA9A7C3
:104E30009D8D5B7265657C89727799938588CE9A22
:104E4000728AAE845F69676C5E888C7A6F888D67C2
:104E50004F47704232858989819CA78B87C7AE6591
:104E60007C8C8B5A427AA47E93C1C6B0B9C5B689F0
:104E70007A7C764C3655556336669B6E6B9FA87D63
:104E80007E9679616293A87988B2BBBDAEB1AE8FD0
:104E900091877B596D7B605682A3B79E6889C39FBB
:104EA000566D916C687B8A93759FAFAF7CB2B26E82
:104EB0005D708E7B564C8C6F838498817B804739E4
:104EC0005B4736493E5D51587385647EAB887DA64D
:104ED000A9AE8E6F83806B5C7F7D8C8183A68C9066
:104EE0009479749593605F80786250655C548C907F
:104EF000908BA691818088938070768A868B8F981C
:104F00008B9FA1AF956A5E916443606C603D617A4E
:104F1000885C6B92978BACA6999795ADA28E95B154
:104F200097879EA98F8578746E6C58497F6A6D80CB
:104F3000736B708D90927696AEA68F92A6948D81AB
:104F400097967D849496809DAD8E889DA2897E6A79
:104F50005873755A5A576155566D88686B8C99937A
:104F6000798670625D65655D5F7D857882999B86D7
:104F7000768B86746E584C687F66615A6A62596691
:104F80007A69748F8B848CA89F88748D8B75597DFA
:104F90008E847E93A6A5B2A5A78F9F9B7D637A6D15
:104FA0006B7969726C747E8087A8AD938E9D9792A1
:104FB00078716C70797366656B8999838F908D7A3F
:104FC0008482746177675E7677736274728B889679
:104FD000A1A6B4B6A8999A97988888898D879E9833
:104FE00091938F8D959083836059747A6557687615
:104FF0006E6C6F735C6A8CA0808193867F828975EA
:1050000052456268595A665F675F817B7A89777813
:1050100081866E76767A73727E7F858CA3B2969A3D
:10502000A9AB94827C7367546D695D6A7A72797CEE
:105030008680808E837A6C7570787C7766677C93C7
:1050400098A0B9A59DA8B1AAA09D8D867F7E8074E9
:105050007A7783826F767B7D7D6D6679776B7079E9
:1050600067605F62727080959B98A3A4A192969BE3
:10507000938F7E949098A09E8579A0998D8986764D
:10508000766E737F74736667617279778B9199A37B
:105090009B979A9E9986776A806D646F645D5F5E68
:1050A000586C6A605C6D5E5E655F575A686F6260DF
:1050B00080A2A498A59FAFA49F9582757272707A02
:1050C00086817888969F8D7877887863606C555D47
:1050D000716F665B7E858586959280848C97917BC7
:1050E000818F9288888E939193A3867C879E927DF0
:1050F00081827E61626C695D59769095928C9797FA
:105100009B9893837989887D778D878C9B948984FC
:105110008F8171788670556C7F86827E86848787C2
:105120009E937F889396898992A496898C9585739E
:1051300078776D69676C6B6C7579755F706F6B5C98
:105140005C707077767784938E9294837D746C6CA8
:10515000636462636984877E80757471716D66694A
:10516000686D788190999E96A19F96827F887C75C4
:1051700071827D7F838C8F8A8E877A6F7575707050
:105180006D76868A8797ADA2938A939E9482797E64
:10519000858A828083888D85726A6766645D607D9A
:1051A00082767884968D7871838987848492A0AA88
:1051B000A2999EABAF9A7F7D8881837C767F8B8A14
:1051C0008D91898670656B756A5F63707C868A8451
:1051D000858F8F94857972787D73737685757279F2
:1051E0007D6D6660625F5A5D5D61646B748081870E
:1051F000898E84837F88897F82898D8487928F7B43
:10520000707077766D696C6E74757A787B83817E49
:1052100083867D7F777F8F8E868996A19B8F828301
:10522000898176717E848E8F8F8A969F8B71748729
:1052300076666E7F848386828A968B7D767D7F7F7D
:105240006E62647C877D737B8A86817E8B7E787EAE
:10525000877B8A96908F9CA7A2A3939CA4A18B88FE
:105260008A8A8587858180817E6F7174766F72737B
:10527000767174727268696A65747C77737E797FFF
:1052800081867B80786E6B6E71686E6F7A7D7F77BA
:105290007A747D756A676C7B716E74858085849085
:1052A0009F9F9899908A98968A7A858E8D7E7F7F27
:1052B0008679675B64716D5D59697373646F797E1C
:1052C0007A8D8A949D9E939CB0B9B09FA1A6A4921A
:1052D0008982857977736E656A6B696A73756B63AA
:1052E0006A76706A7082887F829C979199A59F9850
:1052F000A6AA9B8E8A8B857D81918D75798E9177FB
:105300006B716F67656C6C695F7591898291A59B04
:10531000999B9E9083828579726E6C6B68716665CD
:105320006A6669756F67708170585760676D6F72D4
:105330007B7E8A9A908E928F878286827762697945
:1053400083827D899195A498787E937B6B6C70673E
:10535000626C6D6C7992938891A0927C829286792E
:105360007C8C8282919382839391807A88958573D5
:1053700089967E6D807D6D63705C57647E8F8686B6
:1053800093A599A09A827E897E6D7375797C8CA392
:105390009A9599A2938E9075727E7877818279859D
:1053A0008981786E849084789192848D8C7F747BCF
:1053B000766D6C6F6E63697C7B787B888684907C6D
:1053C0006D76786870796A616D776F6F79857D7AAF
:1053D00089927E738C8A747581827A7D857C6E74E5
:1053E000837D757C868B828A7F788C836E78816BD7
:1053F0005F6473777884939792A7AA90858D83755D
:105400007776707B8386898F9F9B93999D8A8A7E0E
:10541000837A687E8C706B8C7E5E596C6A5B5F836E
:10542000877A8AAA9A8498A58F7F7E7B78748285F2
:10543000888793969FA69D9691918D75798A7A71AA
:10544000838D7A75828175747D827175888A7A8A76
:1054500097847E8B816B6C6D6C606B7B756F747FDA
:10546000746C6E80705C73785F657A746A727D7F2D
:105470008387958F888D8F838C92837D80877D79BC
:105480007F817B77868877767C827A78888476833A
:1054900084716F7B6C5A686B6A727E8F9795ABB222
:1054A0009898A9967D827F797275817F80878A7AA4
:1054B0007B8281727586797187927A848E826D6C17
:1054C0007374686C88928994AAA39B968F84786879
:1054D0006A6C63606E7A7C828C938A8684857A613A
:1054E00072866F697F7E73808A837C808E938D93B2
:1054F000A19E8F90948D848177696A6969697483AC
:10550000878990918E92927A7682735B6169636AE1
:10551000696B758186959E9A9E9C969391868487E9
:10552000787080897F7C858E8B8586887B7D7F5F88
:10553000627F79637A7D6E70777673757B8F817FFA
:105540009B9E898E9A89817E77707176726B72804C
:105550008188958F87938C74787F726869676F7084
:105560006D737E868D9B9A9C9E99908F83777D79B3
:105570006F6E7679828284858787877681886C6B67
:105580007E7A6E7E797173736B6D6B757E818A988E
:105590008E879C9C8A838E847A7989867E7B8A8892
:1055A000838D8A887E767E836C727C706571726A68
:1055B0006C7383837E8A938C8C948D7C80877C75BE
:1055C000777C807D7C8282878381877D7B817D76ED
:1055D0007E786A6A68646D787C818793A19F969DC6
:1055E0009E877D81817F757A838C8389918C807978
:1055F00082695E6B6F6368747171757D7F7F84896A
:105600008782878D8A8D8E85838D8E878884817829
:105610007384837F7D8C94777B958F737A7C6E62A5
:10562000606C6F70788E8D8F999D958B8B7E747664
:1056300078797A7E8585838787857B7879646876B3
:10564000736875796E717E84898E90989499999615
:105650008A8D857D8A857778827874747D81797E5C
:10566000888A7B6E7E8E7A768375656A71767576AA
:1056700089948A8E9C92817E7D757370797B787D0A
:1056800083827C8883897E7E80798A90847F8C7EE9
:10569000747376777A7C869093929B978D877C75CE
:1056A0006A65687571707D898D938A8E86837A6D3F
:1056B00078817A6E81797276837E767985847A8A2A
:1056C000938F84888F89848C8B807981837C747B91
:1056D000817A78848F7E7C8B887472715E57646A5D
:1056E000667487949F9EAAAA9387888A766F6B6D4B
:1056F0006F76838888898F858078817D666B7E73DD
:10570000687F8A746B76807671849793859BA49862
:10571000949A968F827D79756C6B6C6E6E6A6E7BD7
:105720007D7781706E7D82727D82757873788683D5
:10573000849095919D96919C908983867E857F81AA
:105740007573717A867E7D8080777F6A73857B6DC5
:105750007870686E687585847CA1A794A6A29797D7
:10576000807A78705A5967516C7E686C87A8A590CA
:105770009CA18E604B7E7A557796898E9AA6976803
:105780007B9687828CA0A9A1908A75534D3F607348
:105790006C8A7760545672849DA388736E7F96944A
:1057A000858EA39170687375748B9EA59686958976
:1057B0006B6566736E686F6E70728B9998A1A9A9FC
:1057C000A4908E7B7173667C8D8F7A72746A544E4E
:1057D000556E7C73837F73879E9C95948B88746CC5
:1057E000717F7F7EA4B0B7B3AA9384737577677E09
:1057F000807181836D6D818A776A5D5C5D5D647D9A
:105800008A939AA6A0886F89A85260827A7E7E9435
:105810008B8D879F9A8F9E8883817D8069667C7F30
:105820006A58687F745B749388768097ACB1908572
:105830009D948281877D797E787264708284868F60
:10584000928F7265808F7B848C8D91A3A58D8F8FB5
:105850008D7F73849384868F978A8A858378574A4D
:1058600039323E3C32434443494F5245425A5D58D7
:105870005E62726C768274768C8F868F928E7F6E6B
:105880007B928283A0BFCCC5BCB9BDA88B81848B21
:105890007F69747A75767F928B8480777564697777
:1058A0007B6B7F836B7C787B82735A605C4C4F6729
:1058B000767384949C9E8B88917F65656F6D737AF7
:1058C00096AAA3B4C4C0C9CBC4BDBDBCB8B2B6B55A
:1058D000B2BFB0AEB5B6A38E7B77745F5667868DC8
:1058E00094A4B5A9968E8778614C515A5B5C647B11
:1058F0008D8F8C8F8B8671656664606A6F7074782B
:1059000082726A77847D6C6669706A697D88919419
:10591000929A9483776C594F4B56575E737C899358
:105920009190958F7C706B6E6E667F8C8F8B9C9741
:1059300076737A7C6C605F77847B80ABB3AFB2B5F3
:10594000B9AD95837C6F6460686C7D80848D969022
:10595000847B776C6154636B657B7A7B727C756248
:105960005A5A5C5759606F7F8272828F9289746E27
:1059700071654234484B4A616B7F898985837D63B9
:1059800057514A474B5461686C6B7A716870625129
:10599000566D716A65728A947B8CB1BAB1AEBBC127
:1059A000B69AA0B4AFA5ACB3C9CFCDD2D4D5C3C439
:1059B000C1B6B2BEC1B8BCC9CFC5BDB3B9A48D898B
:1059C0009FA4958D848E8F7971888B8072746A659F
:1059D000594A45495754565D6D70655B6363533D45
:1059E00038352828252933464956575E6E6A5E6346
:1059F000665E5F5152555D5559667B877F829397EE
:105A0000827B74726F70747D7E85989B999E928F55
:105A10008F8A8C7F8188918F99A49A9FA39490A05C
:105A2000988B7F8992938884A1ABAAA2A0A9A997F9
:105A30008F8C8B86807D95A69C9A989297886D62B4
:105A40005F63565E6B777F87929EA39D979D9D9225
:105A5000957E747A8C8F98A7BBCBCDC8CEC3A29B02
:105A60008A898481818B9890949F9B97847A7B7696
:105A700067686D7A7F857763746D5E51635C5246AB
:105A800045505B4E57697B887D79777D5D4E4750E9
:105A900048464D686F6B6A6D75726C56545C6163F5
:105AA0006C72868F918DA19A818A8B7F776D656AE2
:105AB000777D88979AA9A7A5A7A38D807A818274FC
:105AC0006B7B9087888A918984797E7E7A79818BB5
:105AD0009299888983807C7D7271685D6D78697028
